:0200000280007C
:100000005026072065010800610108006101080011
:1000100061010800610108006101080000000000A2
:100020000000000000000000000000006101080066
:100030006101080000000000610108006101080082
:100040006101080061010800610108006101080008
:1000500061010800610108006101080061010800F8
:10006000610108006101080000000000FD0E0800A9
:10007000510F0800A50F0800F90F0800000000004C
:100080000000000061010800610108006101080032
:1000900061010800610108006101080061010800B8
:1000A000610108000000000061010800B1120800B1
:1000B0001113080071130800D1130800351408004B
:1000C00099140800FD14080061150800C515080002
:1000D000BD1C0800A11808006101080061010800AA
:1000E0006101080061010800610108006101080068
:1000F0006101080010B5054C237833B9044B13B1E6
:100100000448AFF300800123237010BD9C03072037
:1001100000000000805908000C4B43B10C4810B59A
:100120000C49AFF300800C48036823B910BD0A489E
:10013000036833B97047094B002BF7D0BDE8104076
:100140001847064B002BF5D0184700BF00000000F1
:1001500080590800A0030720805908000000000013
:10016000FEE7000008B51C4B1C4A9A4210D01C4BFD
:10017000194A9A420CD2013B9B1A23F00303043321
:100180001344164951F8040B42F8040B9A42F9D172
:10019000144B154A9A420AD2013B9B1A23F00303DF
:1001A00004331344002142F8041B9342FBD10F4B4C
:1001B00023F0604222F07F020D498A6003F1604320
:1001C000B3F5801F03D28B6843F000538B60094B5B
:1001D0009847094B9847FEE7000007208059080020
:1001E0009C0307204C0607209C0307200000080002
:1001F00000ED00E0CD1C08000D0408000A4B1B6850
:1002000053B1094B1B681A180849914208DB104684
:10021000054A106018467047054A034B1A60F0E71C
:100220004FF0FF30704700BFB8030720FC7F082065
:10023000502607204FF0FF3070474FF400534B60BB
:10024000002070470120704700207047F0B583B050
:10025000284B9847284B9847284B98470120284D12
:10026000A8474FF0205219210120264CA0471E22FA
:1002700019210120244EB0470220A8474FF02052F8
:100280001A210220A0471E221A210220B0474FF057
:1002900040521E210220A0474FF040521B21012056
:1002A000A0474FF0605215210020A0470520A84725
:1002B0004FF4804700970023144A19460520144E36
:1002C000B0470620A84700974023124A0021062085
:1002D000B0470420A84702234FF0FF32002104203A
:1002E0000D4DA8474FF0805219210120A04703B0BF
:1002F000F0BD00BF39080800CD0A0800D505080088
:10030000B10B0800790D0800E50D080080A2190066
:100310004D10080080DE8002E11008002DE9F84F42
:1003200081460F4690460520194B9847474519DBF3
:1003300013DDDFF868B0DFF868A0164E3846D847FE
:1003400001464846D0471025052429462046B04797
:100350000028FAD0013FB845F0D105200E4B984750
:10036000BDE8F88FDFF834B0DFF834A0094E384626
:10037000D84701464846D04710250524294620463F
:10038000B0470028FAD00137B845F0D1E5E700BF03
:100390008511080045120800C11108009D50080091
:1003A000F90508002DE9F0410620124B9847124F3D
:1003B0000025124E2C46DFF8508001221B211046EA
:1003C000B047224615212046B04722461E21022072
:1003D000B0473B68224658F823102846084B9847F8
:1003E00047F8044B0135052DE7D10620054B98470A
:1003F000BDE8F08185110800C0030720450E080004
:100400001D030800C11108003401072080B5484BC6
:100410009847484F484CDFF85481DFF854911EE06C
:1004200001221B211046454DA847002215211046E8
:10043000A84700221E210220A84729E04048414B3E
:100440009847414B98471926012531462846A04731
:100450000028FAD11A210220A047002855D13A6875
:10046000052ADDD002F001021B210120334DA847EF
:100470003A686FEA620202F0010215210020A847E3
:100480003A686FEAA20202F001021E210220A84788
:1004900004202E4B984719210120A0470028D9D0CD
:1004A000402104202A4B98470028D3D00420294D0E
:1004B000A84701462848234B98470420A8474045B1
:1004C000BCD826481F4B98473868254D55F8206002
:1004D0002449731C5A4203F0030302F0030258BF7D
:1004E000534251F8232051F826101F4B9847396882
:1004F00055F8213001335A4203F0030302F003029E
:1005000058BF534245F821309DE73B68013389FBD2
:100510000312A2EBE37202EB4202A3EB42033B6045
:100520001A26022531462846A0470028FAD196E728
:100530004D020800BC030720A90E0800450E080064
:100540003C550800E9250800A503080085110800AE
:1005500045120800FD110800105508002855080034
:10056000C0030720340107201D030800FFC1EB0B67
:10057000ABAAAA2AF0B583B00446114E16F82000A3
:10058000104FB84706EB840516F8240069694FF050
:1005900080520D4B984795F82800B84795F82800E9
:1005A000012300930B214EF6602241F29413074D74
:1005B000A84740F2DC52064B43F8242003B0F0BDBC
:1005C00044010720B10B0800790D0800051A080046
:1005D0003406072038B50024044D2046A8470134CE
:1005E000052CFAD10248034B984738BD7505080021
:1005F000C0C62D00C91A0800042841D82DE9F843C7
:100600000D460446244B03EB8003D86B234B9847DD
:10061000002837D1204B03EB84032846196D1F4B6C
:100620009847002831D11C4B03EB840393F8280032
:100630001B4B9847064600282AD01A4F28461A49CD
:10064000B8471A491A4B98478046134B03EB84036B
:1006500093F828903046174B98474146B8471649BB
:10066000164B9847164DA84781B24846154B9847F8
:100670004046A847144B43F824000120BDE8F88306
:10068000002070470020BDE8F8830020BDE8F88313
:100690000020BDE8F88300BF44010720BD540800D6
:1006A000011C080045510800000020410080BB44A7
:1006B000354F08009550080000247449AD520800D9
:1006C000D1540800551B0800340607200000000024
:1006D0002DE9F0410D20224B984732200021214B7B
:1006E00098470720204B984742F20F701F4B9847BE
:1006F0001F4B98470A2600271E4DDFF8A480802450
:100700002046A8470028FBD00720C04701463846AE
:10071000194B98470746013EF1D10D20174B9847DA
:1007200038461749174B9847174B98470AA3D3E900
:100730000023164CA04758B1154B98471548164B47
:10074000984772B6BFF35F8F0022144B1A70FEE712
:10075000BDE8F081AFF30080E92407964E72F83FC0
:10076000B10B0800291608000D170800BD16080077
:10077000511708000D180800354F08007D0C0800BF
:1007800000002041AD520800D14808005D4E08002D
:10079000CD0A080050550800D12608002C0107207A
:1007A0008D170800704700BFF0B48CB007460E46A6
:1007B00001AC204D0FCD0FC40FCD0FC495E807003D
:1007C00084E8070001AA002052F8043BB6FBF3F3CB
:1007D000B3FBF7F3FF2B04D901300B28F4D11A46F1
:1007E00000E01A460CA901EB800151F82C1CFE2AEE
:1007F00011D8B6FBF1F6541CB6FBF4F1C91B002965
:10080000B8BF4942B6FBF2F6F61B002EB8BF7642DF
:10081000B142B8BF23460A2804D8012B05D943EAC0
:10082000002004E04FF6FF7001E04FF6FF700CB0BF
:10083000F0BC70478055080010B52C4B98472C4AE7
:10084000D36823F4E0631B041B0C43F0BF6343F441
:100850000033D3600122274B1A70BFF35F8F62B65B
:100860004FF40042244B5A60244A1346002103F8F7
:10087000041B643242F20F74084621491C60586020
:1008800099600C339342F9D11C4A02F16003A03203
:10089000002143F8041F9342FBD10022194B1A6038
:1008A000164A02F1A303AB32002103F8011F934261
:1008B000FBD1124901F1AC0301F5037100221A705A
:1008C0005A609A609A819A731A615A611A839A7669
:1008D00083F8222083F8232083F8262083F827201A
:1008E0002C338B42EBD1084B984710BD01000720F9
:1008F00000ED00E02C010720501A0E40D403072021
:10090000A507080000400940D106080010B44FF4C4
:10091000D673036040F20223C0F820310023C0F8F0
:100920000431C0F814310B684A68B3FBF2F31B09B9
:100930005C1E4FF6FE72944207D803628B684360D8
:100940004FF4A8730360002000E001205DF8044B21
:10095000704700BF436913F0010F1DBF83690B701F
:1009600000200120704700BF436913F0020F1ABF37
:10097000C1610020012070474264B1F1805F16D050
:1009800004D8C1B1B1F1006F0AD013E0B1F1405FFA
:1009900011D0B1F1605F0ED0B1F1205F0AD1704784
:1009A000036F016F0B4023EA0203036702E0036F4A
:1009B0001343036742607047416412F0010F14BF94
:1009C0004166016612F00A0F14BF0162416212F023
:1009D000020F02D0C0F8801004E012F0080F18BF18
:1009E000C0F8841041610160704700BF12F0100F21
:1009F00010D0C0F8B01012F0200F14BFC0F8D410FF
:100A0000C0F8D01012F0400F14BFC0F8C010C0F8EA
:100A1000C4107047C0F8B410704700BF10B44164F0
:100A2000019C0CB1416600E001660BB1016500E07C
:100A300041650AB1016300E04163016101605DF855
:100A4000044B7047F0B583B007460C4616461D466A
:100A5000B1F1205F1AD006D8B1F1006F0AD0B1F120
:100A6000805F07D028E0B1F1405F15D0B1F1605F41
:100A700012D021E0384621463246114B984715F0F6
:100A8000010F14BF7E663E66012016E011461A462D
:100A90000C4B9847012010E005F001030093384605
:100AA0003146B4F1605F14BF00220122C5F3800318
:100AB000054CA047012000E0002003B0F0BD00BFBE
:100AC00079090800B90908001D0A080010B584B0AA
:100AD000124B93E8070004AB03E9070010484FF0FE
:100AE00000614FF4407201230E4CA0470E4B9B69EE
:100AF00013F4807F03D14FF480720B4B1A610B48C3
:100B000001A90B4B984701220A4B1A700A4B1B682C
:100B100098680021094B984704B010BDAC550800F7
:100B2000000E0E40450A080000060E4000080E4068
:100B30000D090800D4030720CC010720E126080096
:100B400038B50D460A4A536913F0010FFBD0084C23
:100B500020462946074B9847636913F0400F05D09C
:100B6000236843F48073236024232B70012038BD55
:100B700000080E40550908002DE9F843B2F10009BC
:100B80000FDD0D4601EB0908074C2746074E636948
:100B900013F0020FFBD0384615F8011BB04745454E
:100BA000F5D14846BDE8F88300080E406909080001
:100BB00038B5162806D972B6BFF35F8F0022284BCE
:100BC0001A70FEE7274B03EB80039B6B1F2B20D88B
:100BD000254A9169012202FA03F303EA01029342D2
:100BE0003CD0214A1361032838D884001D4B23448C
:100BF000D3F8945028464FF0FF3100221B4B984702
:100C00004FF0FF336B64EB6C194B1C44002363669D
:100C100038BD154AD2F80811A3F1200201239340F0
:100C200003EA010293421CBF0F4AC2F80031A0F14F
:100C30000F03DBB2072B05D80D4B1844012380F8B6
:100C4000953038BD0D2803D101220A4B1A6038BDFA
:100C50000E2803D10122084BC3F8942038BD00BFF1
:100C60002C0107208055080000060E40ED09080001
:100C7000D403072000000C4000800C40162806D941
:100C800072B6BFF35F8F0022254B1A70FEE728B9BA
:100C9000244B1B78002B41D10B2305E0224B03EBA7
:100CA00080039B6B1F2B0BD8204A9169012202FA0B
:100CB00003F303EA0102934230D11C4A53617047A7
:100CC000A0F10F02D2B2072A1AD80F38164A02EB47
:100CD0008002D2F8A41001228A4015498A60114A84
:100CE0001044002180F8A41092F8A420B2B90D4A53
:100CF00002F1A401AB3211F8010F78B99142FAD197
:100D00000A4AD2F80811203B012202FA03F303EA4F
:100D10000102934204BF054AC2F80431704700BF84
:100D20002C010720D40307208055080000060E4040
:100D300000400940032813D80D4B1B7823B118B984
:100D4000A1F10803012B0DD900290DDB094B03EBA1
:100D50008000D0F8C430994208DC012088407047F8
:100D60000020704700207047002070470020704727
:100D7000D40307208055080038B5B2F1605F0ED06B
:100D800022F00053B3F1006F09D0B3F1805F06D0B9
:100D900072B6BFF35F8F00220E4B1A70FEE7154646
:100DA00004460D4B9847024668B10C4B03EB840494
:100DB000D4F894002946B5F1205F14BF0023012325
:100DC000074CA04738BD72B6BFF35F8F0022014BBE
:100DD0001A70FEE72C010720350D08008055080029
:100DE000450A080038B5531EF92B06D972B6BFF371
:100DF0005F8F00220F4B1A70FEE7144605460E4B1C
:100E0000984780B10D4B03EB8505D5F8942010620F
:100E1000C2F88400E4030A4BA3FB04139B09013BC3
:100E2000C2F88C3038BD72B6BFF35F8F0022014B21
:100E30001A70FEE72C010720350D080080550800C8
:100E4000D34D6210032801D8012A06D972B6BFF328
:100E50005F8F0022124B1A70FEE7002906DB114B50
:100E600003EB8003D3F8C430994206DD72B6BFF3BA
:100E70005F8F00220A4B1A70FEE742B9094B03EB61
:100E80008000D0F8942001238B4053637047054BBA
:100E900003EB8000D0F8942001238B40136370474C
:100EA0002C01072080550800032806D972B6BFF32D
:100EB0005F8F00220F4B1A70FEE7002906DB0E4BF6
:100EC00003EB8003D3F8C430994206DD72B6BFF35A
:100ED0005F8F0022074B1A70FEE7074B03EB80037E
:100EE000D3F89430DA6B01238B40134214BF0120F6
:100EF000002070472C010720805508002DE9F041A3
:100F0000114AD56C11494B6E2B434B66956C1D40B5
:100F100017D00E460C1D6436884623680B2B0CD167
:100F200063681D4209D0A36898476368DB431D408E
:100F3000D8F864201340C8F8643015B10C34B442BA
:100F4000EBD1BDE8F08100BF000E0E40D4030720B6
:100F50002DE9F041114AD56C11498B6E2B438B66FC
:100F6000956C1D4017D00E460C1D643688462368CC
:100F70000C2B0CD163681D4209D0A36898476368A5
:100F8000DB431D40D8F868201340C8F8683015B11D
:100F90000C34B442EBD1BDE8F08100BF00100E402C
:100FA000D40307202DE9F041114AD56C1149CB6ECD
:100FB0002B43CB66956C1D4017D00E460C1D643636
:100FC000884623680D2B0CD163681D4209D0A368A5
:100FD00098476368DB431D40D8F86C201340C8F87D
:100FE0006C3015B10C34B442EBD1BDE8F08100BFD8
:100FF00000120E40D40307202DE9F041114AD56CB0
:1010000011490B6F2B430B67956C1D4017D00E4693
:101010000C1D6436884623680E2B0CD163681D4274
:1010200009D0A36898476368DB431D40D8F8702057
:101030001340C8F8703015B10C34B442EBD1BDE8A0
:10104000F08100BF00140E40D4030720F0B5BDF8B6
:101050001440051FEDB2082D0BD8042909D842B160
:1010600013F0BF0F05D124F40055ADB2B5F5804F94
:1010700006D072B6BFF35F8F0022154B1A70FEE7E1
:1010800044F4004423431943041F124B03EB84032D
:10109000D3F8EC30104E56F82450AD015F194FF0E4
:1010A000020E43F805E04FF0FF35BD623D6A7960FE
:1010B00056F8241003EB8111CA6156F8242003EB83
:1010C00082131B6A054B03EB800000234366F0BDCF
:1010D0002C01072080550800A8010720D403072011
:1010E000F0B51C46031FDBB2082B04D8042902D834
:1010F0000AB1032C06D972B6BFF35F8F00221D4BD5
:101100001A70FEE741F04003032C31D8DFE804F009
:101110000205080B43F4202307E043F4C02304E056
:1011200043F4102301E043F4A023041F124901EB10
:101130008401D1F8EC10114E56F82450AD014F192E
:101140004FF0020E41F805E04FF0FF35BD623D6AF9
:101150007B6056F8243001EB8313DA6156F82430B3
:1011600001EB83110B6A064B03EB800000234366FF
:10117000F0BD00BF2C01072080550800A801072002
:10118000D4030720031FDBB2082B06D972B6BFF3C6
:101190005F8F0022074B1A70FEE7031F064A02EB1F
:1011A0008302D2F8EC20054951F823309B01052138
:1011B000D15070472C01072080550800A801072056
:1011C000031FDBB2082B06D972B6BFF35F8F002274
:1011D000074B1A70FEE7031F064A02EB8302D2F8A0
:1011E000EC20054951F823309B010221D150704772
:1011F0002C01072080550800A8010720031FDBB23F
:10120000082B06D972B6BFF35F8F00220A4B1A7003
:10121000FEE7031F094A02EB8302D2F8EC200849DB
:1012200051F8233002EB831253699069834292BFD5
:10123000C01ADB43C01870472C01072080550800F6
:10124000A801072010B4031FDBB2082B05D8102912
:101250000AD0402908D0802906D072B6BFF35F8F2C
:1012600000220F4B1A70FEE7021F0E4B03EB8203A6
:10127000D3F8EC300C4C54F8222003EB82131C6A98
:101280000A4A02EB8002536E234323EA01005066B0
:101290000B4214BF012000205DF8044B704700BFD3
:1012A0002C01072080550800A8010720D40307203F
:1012B0002DE9F041144B1B689B0103F1804303F5BA
:1012C00000231D6A11494A6F2A434A67DD6A1540A7
:1012D00017D00E460C1D6436884623681B2B0CD194
:1012E00063681D4209D0A36898476368DB431D40CB
:1012F000D8F874201340C8F8743015B10C34B442D7
:10130000EBD1BDE8F08100BFA8010720D40307207E
:101310002DE9F041144B5B689B0103F1804303F519
:1013200000231D6A11498A6F2A438A67DD6A1540C6
:1013300017D00E460C1D6436884623681C2B0CD132
:1013400063681D4209D0A36898476368DB431D406A
:10135000D8F878201340C8F8783015B10C34B4426E
:10136000EBD1BDE8F08100BFA8010720D40307201E
:101370002DE9F041144B9B689B0103F1804303F579
:1013800000231D6A1149CA6F2A43CA67DD6A1540E6
:1013900017D00E460C1D6436884623681D2B0CD1D1
:1013A00063681D4209D0A36898476368DB431D400A
:1013B000D8F87C201340C8F87C3015B10C34B44206
:1013C000EBD1BDE8F08100BFA8010720D4030720BE
:1013D0002DE9F041154BDB689B0103F1402303F538
:1013E00000231D6A1249D1F880202A43C1F88020C9
:1013F000DD6A154017D00E460C1D643688462368FA
:101400001E2B0CD163681D4209D0A36898476368FE
:10141000DB431D40D8F880201340C8F8803015B158
:101420000C34B442EBD1BDE8F08100BFA801072025
:10143000D40307202DE9F041154B1B699B0103F1F3
:10144000402303F500231D6A1249D1F884202A4362
:10145000C1F88420DD6A154017D00E460C1D643695
:10146000884623681F2B0CD163681D4209D0A368EE
:1014700098476368DB431D40D8F884201340C8F8C0
:10148000843015B10C34B442EBD1BDE8F08100BF1B
:10149000A8010720D40307202DE9F041154B5B6913
:1014A0009B0103F1402303F500231D6A1249D1F883
:1014B00088202A43C1F88820DD6A154017D00E46DF
:1014C0000C1D643688462368202B0CD163681D42AE
:1014D00009D0A36898476368DB431D40D8F888208B
:1014E0001340C8F8883015B10C34B442EBD1BDE8D4
:1014F000F08100BFA8010720D40307202DE9F041A7
:10150000154B9B699B0103F1804303F508231D6A7A
:101510001249D1F88C202A43C1F88C20DD6A15408D
:1015200017D00E460C1D643688462368212B0CD13B
:1015300063681D4209D0A36898476368DB431D4078
:10154000D8F88C201340C8F88C3015B10C34B44254
:10155000EBD1BDE8F08100BFA8010720D40307202C
:101560002DE9F041154BDB699B0103F1804303F545
:1015700008231D6A1249D1F890202A43C1F890200F
:10158000DD6A154017D00E460C1D64368846236868
:10159000222B0CD163681D4209D0A3689847636869
:1015A000DB431D40D8F890201340C8F8903015B1A7
:1015B0000C34B442EBD1BDE8F08100BFA801072094
:1015C000D40307202DE9F041154B1B6A9B0103F161
:1015D000804303F508231D6A1249D1F894202A4359
:1015E000C1F89420DD6A154017D00E460C1D6436F4
:1015F00088462368232B0CD163681D4209D0A36859
:1016000098476368DB431D40D8F894201340C8F81E
:10161000943015B10C34B442EBD1BDE8F08100BF79
:10162000A8010720D403072030B4831C012B01D864
:1016300040420CE0C31E612B02D811F0EF0F06D020
:1016400072B6BFF35F8F0022194B1A70FEE7194B79
:1016500000245C6040F20222C3F82021C3F8044158
:10166000C3F814415D684202A2F5807292B22A4327
:101670005A60586840F080505860586820F0100058
:1016800058605A680A435A605A6842F400025A6025
:10169000D3F8942022F01002C3F894209C644FF0F9
:1016A000FF325A611B6B044BC3F8984030BC704743
:1016B0002C01072000000C40D40307200246C8B1CB
:1016C00042F20F7398420DD020F004039BB2032B1B
:1016D00010D005280ED072B6BFF35F8F0022094BE1
:1016E0001A70FEE7084A536823F00F0343F08003A3
:1016F0005360704704494B6823F00F0313434B605A
:10170000704700BF2C01072000000C400F2806D9AD
:1017100072B6BFF35F8F00220A4B1A70FEE70A4BC6
:10172000034493F8102101239340D943074A5161A0
:1017300013610F2805D1D2F8943043F01003C2F89A
:10174000943070472C0107208055080000000C40A1
:101750000222014B1A60704700000C400F2806D986
:1017600072B6BFF35F8F0022054B1A70FEE7054B80
:10177000184490F81021044B53F82200704700BF22
:101780002C0107208055080050000C4070B504461D
:10179000174B9847174B5D6805F0100240F2FF3574
:1017A00040F6FF73002A08BF1D46134B98471349A4
:1017B000134B984706462846124B98470146304639
:1017C000114B98470B4B9B6C6400E34003F0030301
:1017D000022B02D0032B05D070BD4FF07C51084B7B
:1017E000984770BD4FF07A51054B984770BD00BFC8
:1017F0005D17080000000C4095500800333353403B
:10180000455108009D500800AD520800431E012BB1
:1018100030D904282ED008282CD010282AD02028EF
:1018200028D0402826D0802824D0B0F5807F21D031
:10183000B0F5007F1ED0B0F5806F1BD0B0F5006F03
:1018400018D0B0F5805F15D0B0F5005F12D0B0F5BC
:10185000804F0FD0B0F5004F0CD0B0F1806F09D0A1
:10186000B0F1006F06D072B6BFF35F8F0022094B54
:101870001A70FEE7084B196B084AD2F898300B43F0
:1018800023EA0001C2F89810184214BF012000207A
:10189000704700BF2C01072000000C40D403072034
:1018A0002DE9F041124A156B1249D1F898302B43BB
:1018B000C1F89830D56A1D4017D00E460C1D64360D
:1018C00088462368252B0CD163681D4209D0A36884
:1018D00098476368DB431D40D8F898201340C8F848
:1018E000983015B10C34B442EBD1BDE8F08100BFA3
:1018F00000000C40D403072070B44A680C8B8B683E
:1019000003F00F0323438C7B43EA44238C7E43EA9A
:101910000443CC7E43EA44430C7F43EA84438C89EE
:1019200043EA042300EB4214C4F800320B69C4F804
:1019300004324B69C4F80C328B7E3BB10C8CCB8BE0
:1019400043EA044300EB4214C4F81832846C4FF0AD
:1019500001139340DB4303EA040591F8234004FAA2
:1019600002F691F82240944044EA06442C438464F1
:10197000446C1C4091F8253003FA02F591F82430AC
:10198000934043EA0543234343640123934091F882
:1019900026401CB1046A1C43046203E0046A24EA82
:1019A0000304046291F82840012C846E0CBF1C4390
:1019B0009C43846691F82940012C846E0CBF44EA54
:1019C000034324EA03438366032A0BD8C56ED2007F
:1019D000FF23934025EA030491F8273093402343E3
:1019E000C3660BE0043A056FD200FF23934025EA5B
:1019F000030491F82730934023430367002070BC11
:101A0000704700BF2DE9F0419DF81870A0F10F0458
:101A1000E4B2072C08D8082904D9A1F10A04E4B2D9
:101A2000022C01D8012F06D972B6BFF35F8F0022B6
:101A3000204B1A70FEE70F381F4C044494F8A44062
:101A4000ACB39C4696460A461B4E2C2101FB00F186
:101A50007318012583F8AC50184C04EB8000D0F8C3
:101A6000A480C3F8B080C3F8B4200024A3F8B84021
:101A700083F8BA70C3F8BCC0C3F8C0E0A3F8C44090
:101A800083F8C64083F8CE4083F8CF4083F8D24035
:101A900083F8D3400A4F06F1AC0338461944094B8A
:101AA000984705FA08F57D60FB69C6F8A040BDE8D7
:101AB000F08100BF2C010720D403072080550800C7
:101AC00000400940F918080008B5A0F5A1721B4BA9
:101AD0009A4207D950B372B6BFF35F8F0022184BFA
:101AE0001A70FEE7174BD3F8083113F0100F23D00C
:101AF00028B9154A13681B0C1B04136013E0134923
:101B0000134B98474FF6FF73984206D172B6BFF356
:101B10005F8F00220A4B1A70FEE70B490A68130C0C
:101B20001B0403430B60084BDB6908BD054BD3F86E
:101B3000083113F0100FDCD108BD00BF7EC52D00A9
:101B40002C01072000060E400040094000BD0105A1
:101B5000A9070800A0F10F03DBB2072B06D972B664
:101B6000BFF35F8F0022184B1A70FEE7A0F10F033E
:101B70002C22164802FB030292F8AC202AB972B656
:101B8000BFF35F8F104B1A70FEE72C220F4802FB49
:101B90000302D2F8C0208A4206D272B6BFF35F8F2A
:101BA0000022094B1A70FEE72C20084A00FB032391
:101BB000C3F8BC10D3F8B0305B0103F1402303F548
:101BC0001023C3F8081270472C010720D403072004
:101BD000094B1B680C2808BF1B0C13F0FF0209D02F
:101BE000C3F30323012A054820FA03F018BFB0FB12
:101BF000F2F07047002070470040094000BD010529
:101C000008B5A0F10F03DBB2072B06D972B6BFF3FC
:101C10005F8F00220E4B1A70FEE70F382C220D4BFF
:101C200002FB0033D3F8B03010335B010A4AD058BE
:101C300000F00F000A2803D8084B23FA00F008BD73
:101C40000C2802D8064B984708BD002008BD00BFED
:101C50002C010720D40307200040094000BD0105E6
:101C6000D11B08002DE9F843124AD5691249D1F871
:101C7000A0302B43C1F8A03095691D4018D0804694
:101C80000E460C1D64368946236843450CD16368B3
:101C90001D4209D0A36898476368DB431D40D9F80B
:101CA000A0201340C9F8A03015B10C34B442EBD1D8
:101CB000BDE8F88300400940D403072008B524207C
:101CC000014B984708BD00BF651C080070B5002592
:101CD0000C4E0D4CA41BA410A54209D103F040FEEC
:101CE00000250A4E0A4CA41BA410A54205D170BDC4
:101CF00056F8253098470135EEE756F825309847D5
:101D00000135F2E76C5908006C5908006C5908005D
:101D10007059080003460244934200D1704703F80B
:101D2000011BF9E7002B2DE9F0471E46BBBF03F16D
:101D300000431E4600232D2388B0149F129927F0DC
:101D40002007462F1446109DDDF84CA00B7004D0E0
:101D5000452F00D10135022300E0032307AA049296
:101D600006AA03928DE828042246334600F0C4FEFA
:101D7000472F804602D1119BDB0726D5462F08EB63
:101D8000050911D198F80030302B0AD10022002328
:101D90002046314603F058F818B9C5F10105CAF8D4
:101DA0000050DAF8003099440022002320463146E2
:101DB00003F04AF838B93022079B994505D9591CD8
:101DC00007911A70F8E7CDF81C904046079B159ACA
:101DD000A3EB0803136008B0BDE8F0870346F7B52E
:101DE000002903F8022BB6BF2D222B2249420929D4
:101DF000427021DD0DF1070217460A2691FBF6F528
:101E000006FB1511092D01F1300102F8011C02F148
:101E1000FF34294609DC3031023A04F8011CBA4289
:101E20001C4604D3201A03B0F0BD2246E6E712F8A0
:101E3000011B03F8011BF2E730221C46114404F891
:101E4000022B5970EEE700002DE9F04F91B00C46DF
:101E50001A9F93461E46054601F09EFD03681846EC
:101E6000099300F0F3FC00230E933B680A900733BC
:101E700023F0070303F1080294F81880D4F800A0B7
:101E80003A60D3E90023C4E91223D4F84C90A76C3C
:101E900029F000430B934FF0FF32A64B38460B99C5
:101EA00003F004F8002840F0F7814FF0FF32A14B17
:101EB00038460B9902F0DCFF002840F0ED8100224B
:101EC00000233846494602F0C9FF10B12D2384F89B
:101ED0004330994B994FB8F1470F98BF1F460323E2
:101EE0004FF0000923612AF00403236000965B464B
:101EF0000FAA2146284600F0DFF9013040F09A8011
:101F00004FF0FF3011B0BDE8F08F62680EA8531C8F
:101F10000DF1340E4AF4806341D106226260002143
:101F20002360019363680DF13302059002920093E0
:101F30003A464B460691CDF81080CDF80CE0284685
:101F4000FFF7F0FE08F0DF03472B074609D10D9B92
:101F5000D81C02DB6268934259DDA8F102085FFADF
:101F600088F8B8F1650F0D9936D80139424604F169
:101F700050000D91FFF732FF0E9A81468318012A17
:101F8000236102DC2268D10701D5013323619DF86A
:101F90003330002BAAD02D2384F84330A6E7B8F1C4
:101FA000670F02D0B8F1470FB9D19AB1002106915D
:101FB0000DF133018DE80C00236005903A46CDF811
:101FC0001080CDF80CE002914B462846FFF7AAFEA0
:101FD0000746BCE70122A1E7B8F1660F19D1002935
:101FE00063680CDD216113B92268D20702D5013381
:101FF0000B4423610D9B4FF00009A365C7E713B99C
:102000002268D00701D50233F3E70123F1E74FF04F
:1020100067080D9B0E9A934205DB22682361D10766
:10202000E8D50133E5E7002BCCBF0123C3F1020360
:102030001344DEE723685A0507D423693A46594614
:102040002846B04701302AD15AE7B8F1650F40F26F
:10205000DC80D4E912010022002302F0F5FE002802
:1020600039D00123364A59462846B04701303FF45B
:1020700047AF0E9B0D9A9A4202DB2368D8070ED514
:102080000A9B099A59462846B04701303FF438AFB9
:10209000002704F11A080E9B013B9F4211DB2368C5
:1020A0009F0708D5002704F11908E3680F9A9B1AC7
:1020B0009F42C0F2E780E0680F9B9842B8BF184685
:1020C00020E70123424659462846B04701303FF4F5
:1020D00017AF0137DFE70D9B002B33DC0123184AD4
:1020E00059462846B04701303FF40AAF0D9B23B94B
:1020F0000E9B13B92368D907D1D50A9B099A594673
:102100002846B04701303FF4FBAE4FF0000804F121
:102110001A090D9B5B42984501DB0E9B8EE701235C
:102120004A4659462846B04701303FF4E9AE08F127
:102130000108EEE7FFFFEF7FA4560800A85608004D
:10214000B45608000E9AA36D9A42A8BF1A46002AF8
:10215000904636DC4FF0000A04F11A0328EAE878CA
:102160000B93D4F85890A9EB08039A4531DB0E9BEA
:102170000D9A9A4238DB2368DA0735D40E9B0D9905
:10218000A3EB0902A3EB01089045A8BF9046B8F164
:10219000000F31DC002728EAE87804F11A090D9ACB
:1021A0000E9B9B1AA3EB08039F42BFF678AF012357
:1021B0004A4659462846B04701303FF4A1AE0137A0
:1021C000EDE7134659463A462846B0470130C1D19B
:1021D00096E601230B9A59462846B04701303FF452
:1021E0008FAE0AF1010ABCE70A9B099A59462846B4
:1021F000B0470130C2D183E6434607EB0902594696
:102200002846B0470130C5D17AE60E9A012A01DC92
:10221000DB0734D501233A4659462846B0470130FA
:102220003FF46EAE0A9B099A59462846B0470130E2
:102230003FF466AED4E912010022002302F004FE4E
:1022400050B1002704F11A080E9B013B9F420CDBA2
:102250004B4604F15002F2E60E9B7A1C013B5946B4
:102260002846B0470130F3D14AE601234246594699
:102270002846B04701303FF443AE0137E4E701237D
:102280003A46ECE70123424659462846B04701301A
:102290003FF436AE013708E73A464B4638464946E2
:1022A00002F004FE00283FF430AE014B014F12E66D
:1022B000AC560800B05608002DE9F04791461F467D
:1022C0008A680B6906469342B8BF1346C9F80030C6
:1022D00091F843200C46DDF8208012B10133C9F893
:1022E00000302368990642BFD9F800300233C9F89C
:1022F0000030256815F0060507D104F1190AE368D6
:10230000D9F800209B1A9D422ADB94F843302268BA
:10231000003318BF012392062FD404F1430239463B
:102320003046C047013022D02368E56803F0060339
:10233000042B18BF0025D9F800204FF0000908BF72
:10234000AD1AA368226908BF25EAE5759342C4BFA8
:102350009B1AED181A344D451BD10020BDE8F087BB
:102360000123524639463046C047013003D14FF071
:10237000FF30BDE8F0870135C1E73020E11881F872
:1023800043005A1C94F845102244023382F843104B
:10239000C3E70123224639463046C0470130E6D024
:1023A00009F10109D7E700002DE9F04317460A7E3D
:1023B00085B06E2A984606460C460C9B01F1430EEA
:1023C00000F0BC801AD8632A2ED00AD8002A00F068
:1023D000C880582A00F08A8004F1420584F842201F
:1023E0002AE0642A01D0692AF6D121681A6811F01E
:1023F000800F23D0111D1960136827E0732A00F0A5
:10240000B48008D86F2A2AD0702AE5D10A6842F031
:1024100020020A6003E0752A21D0782ADCD17822D4
:102420006F4984F8452064E01A6801F14205111DE6
:102430001960136884F842300123A3E011F0400FC3
:1024400002F104011960D7D0B2F90030002B03DA91
:102450002D225B4284F8432062490A2217E020685B
:10246000196810F0800F03D0081D18600B6806E093
:1024700010F0400F01F104001860F7D00B886F2AAC
:1024800014BF0A2208225749002084F843006568D7
:10249000002DA560C0F29C80206820F00400206020
:1024A000002B3FD1002D40F095807546082A0BD1B6
:1024B0002368DA0708D5236962689A42DEBF3023B1
:1024C00005F8013C05F1FF35AEEB05032361CDF8BE
:1024D00000803B4603AA21463046FFF7EDFE01305F
:1024E00055D14FF0FF3005B0BDE8F08381F84520AD
:1024F0003C492268186812F0800F00F104051D6045
:1025000001D0036802E05506FBD50388D00744BF1D
:1025100042F0200222601BB9226822F020022260D1
:102520001022B1E77546B3FBF2F002FB1033CB5C2F
:1025300005F8013D03460028F5D1B7E708681A6899
:1025400010F0800F496904D0101D186013681960DD
:1025500007E010F0400F02F1040018601368F6D095
:102560001980002375462361B1E71A68111D1960AF
:10257000156800216268284601F088FA08B1401BFE
:10258000606063682361002384F843309FE7236918
:102590002A4639463046C0470130A2D023689B07FF
:1025A00007D5002504F11909E368039A9B1A9D4297
:1025B00005DBE068039B9842B8BF184693E7012308
:1025C0004A4639463046C04701308AD00135EBE7EC
:1025D000002BA7D10B7804F1420584F8423065E75F
:1025E000C7560800B65608000FB40A4B13B51C684E
:1025F00024B1A36913B9204601F044F905AB049A4C
:10260000A1682046019301F00BFE02B0BDE8104026
:1026100004B07047CC01072070B50E46054618B1CE
:1026200083690BB901F02EF9AB69AC6813B9284680
:1026300001F028F9234B9C4217D16C68A3891B0732
:102640001DD52369DBB1013EA36816F8011F013BCC
:10265000A360E9B9002B2EDA22460A21284600F0B1
:10266000FDF8013011D00A2070BD174B9C4201D1FA
:10267000AC68E3E7154B9C4208BFEC68DEE72146F7
:10268000284600F03DF90028DDD04FF0FF3070BD46
:10269000002B04DAA269934206DB0A2904D02368DE
:1026A0005A1C22601970CFE72246284600F0D6F85F
:1026B0000130C9D1E9E70A2023685A1C226018704A
:1026C00070BD00BF0857080028570800E8560800EA
:1026D000024B01461868FFF79FBF00BFCC010720DF
:1026E00000294FF480630CBF0222002200F000B8E2
:1026F0002DE9F7431D46514B04461E680F46904690
:1027000026B1B36913B9304601F0BCF84C4B9C427A
:1027100052D17468B8F1020F06D0B8F1010F00F27F
:102720008980002DC0F286802146304601F040F8B5
:10273000616B41B104F14403994202D0304601F08B
:102740009DFC002363630023A3616360A3891B06D0
:1027500003D52169304601F091FCA389B8F1020F3D
:1027600023F44A6323F00303A3815DD001AB6A46DF
:102770002146304601F01EF9A3891843A0812DBBE4
:10278000009D284601F07AF9074600284ED1DDF871
:102790000090A9453CD14FF0FF30A38943F00203DC
:1027A000A3810023A36004F1470323602361012375
:1027B000636103B0BDE8F083224B9C4201D1B46851
:1027C000A8E7214B9C4208BFF468A3E7002FD8D0AC
:1027D000B36913B9304601F055F8B8F1010F08BFDD
:1027E000A389276004BF43F00103A381A389276164
:1027F00013F0080065611BD013F001004FF00003D7
:102800001FBF6D42A360A561184608BFA560D0E751
:10281000484601F033F907460028BCD0A3894D464D
:1028200043F08003A381D3E70020B6E7A946F5E78C
:10283000A060BEE74FF0FF30BBE700BFCC01072030
:102840000857080028570800E8560800034613F800
:10285000012B002AFBD1181A01387047F8B50E4633
:102860001446054618B183690BB901F00BF8214BEA
:102870009C422AD16C68A369A360A3891A072ED54C
:10288000236963B323692068F6B2C01A63693746C7
:10289000984204DB2146284600F08AFF28BBA36843
:1028A0000130013BA36023685A1C22601E706369DB
:1028B000984204D0A389DB0719D50A2E17D12146E7
:1028C000284600F075FF90B10FE00B4B9C4201D100
:1028D000AC68D0E7094B9C4208BFEC68CBE72146C7
:1028E000284600F00DF80028CCD04FF0FF373846CE
:1028F000F8BD00BF0857080028570800E856080030
:10290000324B70B51D6806460C4625B1AB6913B94C
:10291000284600F0B7FF2E4B9C420FD16C68B4F9EB
:102920000C309AB215072CD4D00611D4092232608B
:1029300043F04003A3814FF0FF3070BD254B9C4214
:1029400001D1AC68EBE7244B9C4208BFEC68E6E79A
:10295000510712D5616B41B104F14403994202D091
:10296000304601F08BFB00236363A38923F024032B
:10297000A3810023636023692360A38943F00803D4
:10298000A38123694BB9A38903F42073B3F5007FB6
:1029900003D02146304601F031F8A28912F001033C
:1029A0000CD00023A36063695B42A361236953B920
:1029B000B4F90C3013F08000BAD170BD920758BF43
:1029C0006369A360F2E70020F7E700BFCC010720AE
:1029D0000857080028570800E85608002DE9F74F67
:1029E00003690C6980469C4200F38280013C01F13E
:1029F000140700F1140657F8245056F82400013546
:102A0000B0FBF5F54FEA840E06EB0E0307EB0E095B
:102A100001938DB34FF0000A3846B446D34650F8C0
:102A2000042B93B205FB03A3120C4FEA134A05FBD8
:102A300002A29BB2ABEB0303BCF800B04FEA124A10
:102A40005B441FFA82FBDCF800208145CBEB12428D
:102A500002EB23429BB243EA02434FEA224B4CF87B
:102A6000043BDCD256F80E3033B9019B043B9E4246
:102A70001A4631D3C8F81040404601F028FA002821
:102A800026DB30464FF0000E013557F8041BD0F816
:102A900000C08BB2AEEB03031FFA8CF213440A0C96
:102AA000C2EB1C4202EB23429BB243EA0243B9450C
:102AB0004FEA224E40F8043BE7D256F8242006EBBA
:102AC00084032AB9043B9E421A460BD3C8F810402F
:102AD000284603B0BDE8F08F1268043B002AC9D134
:102AE000013CC4E71268043B002AEFD1013CEAE74D
:102AF0000020EEE7000000002DE9F04F466A95B097
:102B00000446219DCDE902233EB9102000F0B6FF16
:102B10006062466086600660C660636A196851B18B
:102B20005A68012393404A608B60204600F0FBFF07
:102B30000022636A1A60039B002BB7BF01230023A6
:102B40002B60039BAEBF2B6023F000430393DDF8A3
:102B50000C90AB4B33EA09031BD142F20F73209A5E
:102B60001360029B23B9C9F31300002800F083858A
:102B7000229B53B9A34B21E0A34B06930833229A1F
:102B80001360069815B0BDE8F08F9E4B0693033393
:102B9000F5E7DDE90267002200233046394602F0FE
:102BA00053F9804660B10123209A1360229B002BC9
:102BB00000F05E85954B229A1360013B0693E0E797
:102BC00012AB019313AB009332463B46204601F013
:102BD000F7F9C9F30A558246002D7DD03046C7F378
:102BE000130343F07F5141F44011A5F2FF35CDF8B6
:102BF00040800022864B01F00BFD7BA3D3E900232C
:102C000001F0BAFE7AA3D3E9002301F003FD0646E2
:102C100028460F4601F04AFE77A3D3E9002301F0CE
:102C2000ABFE02460B463046394601F0F3FC064641
:102C30000F4602F051F90022834600233046394600
:102C400002F00CF958B1584601F030FE02460B462E
:102C50003046394602F0F8F808B90BF1FF3BBBF1FA
:102C6000160F58D8DDE902236A4901EBCB01D1E9FF
:102C7000000102F011F900284FD000230BF1FF3BB7
:102C80000D93129B5D1B6B1E079343BF0023C5F181
:102C9000010807934FF00008BBF1000F3FDB079BD3
:102CA000CDF830B05B440793002308931E9B092B9B
:102CB00000F2B480052BC4BF043B1E931E9BC8BF0B
:102CC0000026A3F10203D8BF0126032B00F2B28035
:102CD000DFE803F084862D78139B129D1D4405F2D6
:102CE0003243202B11DD029A05F21240C3F140035A
:102CF00022FA00F009FA03F3184301F0C7FD01239B
:102D0000A1F1F871013D109373E7C3F12000029B1C
:102D100003FA00F0F1E70123B2E70D90B1E7CBF140
:102D2000000308930023A8EB0B080C93BEE70123D4
:102D300009931F9B002B40F3808099460493002247
:102D40000421656A6A6001F114029A427AD96968BD
:102D5000204600F0B4FE636A28601B68B9F10E0FCC
:102D6000069300F2F080002E00F0ED80DDE90223F2
:102D7000BBF1000FCDE90E2379DD264A0BF00F03DE
:102D80004FEA2B1602EBC303F006D3E90023CDE98B
:102D90000A235CD5DDE90E011F4B0325D3E9082387
:102DA00001F014FFCDE9020106F00F061A4F002EC4
:102DB0004FD1DDE90A23DDE9020101F007FFCDE98A
:102DC00002016EE0012309931F9B5B4403F101099B
:102DD00004934B46012BB8BF0123B0E70023A7E7BC
:102DE0000023F0E7AFF3008061436F63A787D23F12
:102DF000B3C8608B288AC63FFB799F501344D33FEA
:102E00000000F07FE1560800D8560800B5560800CB
:102E10000000F83F705708004857080001260023BB
:102E200009961E934FF0FF33002204939946122314
:102E30001F9284E701230993F4E701230493994641
:102E40001A46F5E76A68490001326A607BE70225A5
:102E5000ACE7F10708D5DDE90A01D7E9002301F065
:102E60008BFDCDE90A010135761008379FE700F0A8
:102E7000A580DDE90E01CBF10006A24B06F00F02A2
:102E800003EBC203D3E9002301F076FD0225002302
:102E9000CDE902019C4F3611002E40F08480002BBA
:102EA0008DD10D9B002B00F08B80DDE90223CDE955
:102EB0000A23DDE90A010022944B01F0CFFF00282C
:102EC0007ED0B9F1000F7BD0049B002B37DDDDE90C
:102ED0000A0100228E4B01F04FFDCDE90201049E54
:102EE0000BF1FF370135284601F0E0FCDDE9022354
:102EF00001F042FD874B002201F08CFBCDE90A0175
:102F00000B9BA3F150750B95002E5CD1DDE90201FE
:102F10000022814B01F07CFB0A9A2B46CDE902018D
:102F200001F0BAFF002840F0F782DDE902010A9AB9
:102F300005F1004301F092FF002840F0EB82DDE94B
:102F40000E23CDE90223139B002BC0F25081BBF16D
:102F50000E0F00F34C816B4B03EBCB03D3E9002343
:102F6000CDE904231F9B002B80F2DA80B9F1000F1A
:102F700000F3D68040F0CD82DDE904010022664BEB
:102F800001F0FAFCDDE9022301F07CFF4E464F46DA
:102F9000002840F0A482069B069A5D1C31230BF1A9
:102FA000010B13709FE2F20705D5D7E9002301F06A
:102FB000E3FC01230135761008376DE7022570E741
:102FC0005F464E468FE7069A4E4B32441192099A5D
:102FD000711E002A48D003EBC103D3E9002300206F
:102FE0004E4901F0F3FDDDE90A2301F011FBCDE9C3
:102FF0000A01069DDDE9020101F06EFF064601F0BF
:1030000055FC02460B46DDE9020101F001FBDDE95A
:103010000A23303605F8016BCDE9020101F01EFFED
:10302000002864D1DDE902230020384901F0F0FADC
:10303000DDE90A2301F012FF002840F0B980119B5E
:103040009D423FF47CAFDDE90A010022304B01F0E4
:1030500093FC0022CDE90A01DDE902012C4B01F0CD
:103060008BFCCDE90201C5E703EBC101D1E9000109
:10307000DDE90A2301F080FCCDE90A01069DDDE9C6
:10308000020101F029FF064601F010FC02460B4642
:10309000DDE9020101F0BCFA3036119B05F8016B45
:1030A000AB42CDE902014FF0000224D11B4BDDE918
:1030B0000A0101F0AFFA02460B46DDE9020101F018
:1030C000EBFE002874D1DDE90A230020134901F04A
:1030D0009FFA02460B46DDE9020101F0BFFE00281F
:1030E0003FF42DAF15F8013C6A1E302B01D0BB46D2
:1030F0004DE01546F6E7064B01F03EFCCDE9020136
:10310000BDE700BF70570800485708000000F03FB7
:103110000000244000001C40000014400000E03F7C
:10312000069DDDE90267DDE904233046394601F0FA
:103130004DFD01F0D1FE804601F0B8FBDDE904232E
:1031400001F01AFC02460B463046394601F060FA9F
:1031500008F1300605F8016B069E0246AE1BB1452C
:103160000B4637D101F056FA06460F4602460B468B
:10317000DDE9040101F072FEC8B9DDE9040132465F
:103180003B4601F061FE10B118F0010F0FD151461E
:10319000204600F0C8FC0023209A2B700BF101039D
:1031A0001360229B002B3FF4ECAC1D60E9E45F460A
:1031B00015F8012C6B1E392A06D1069A9A4207D1BE
:1031C00030231370134601371A7801321A708EE7D4
:1031D0001D46EDE70022B54B01F0CEFB0022002397
:1031E00006460F4601F030FE00289CD0CFE7099A32
:1031F000002A00F029811E9A012A00F30E81109AFC
:10320000002A00F0068103F233434546089E079AE0
:1032100001211A4420469844079200F024FD0746F5
:10322000002D0BDD079B002B08DDAB42A8BF2B4612
:10323000079AA8EB0308ED1AD31A0793089BFBB172
:10324000099B002B00F00481002E11DD3946324627
:10325000204600F09DFD524601460746204600F0FC
:103260000BFD51460A90204600F05DFC0A9B9A46F1
:10327000089B9A1B04D05146204600F089FD8246E7
:103280000121204600F0EFFC0C9B0646002B40F38A
:10329000E1801A460146204600F07AFD1E9B064654
:1032A000012B40F3DA8000230893336906EB830394
:1032B000186900F08AFCC0F12000079B184410F048
:1032C0001F0000F0F080C0F12003042B40F3E280E7
:1032D000079BC0F11C008044054403440793B8F1E8
:1032E000000F05DD51464246204600F09FFD824614
:1032F000079B002B05DD31461A46204600F096FD5F
:1033000006460D9B002B00F0D3803146504600F05E
:10331000DEFD002880F2CC80002351460A222046A0
:1033200000F018FC099B0BF1FF3B8246002B00F0DC
:10333000A981002339460A22204600F00BFC049B99
:103340000746002B03DC1E9B022B00F3B980002DE7
:1033500005DD39462A46204600F068FD0746089BF1
:10336000002B00F010817968204600F0A8FB05468C
:103370003A6907F10C01023292000C3000F094FB24
:1033800001222946204600F051FD07970746029B7F
:10339000DDF8188003F00103089331465046FFF72B
:1033A0001DFB0799054600F13009504600F08FFDDE
:1033B0003A4602903146204600F0A3FDC36802461B
:1033C000002B40F0E28001460990504600F07FFD5E
:1033D0000346099A11462046099300F0A4FB099B75
:1033E000002B40F0D4801E9A002A40F0D080089A2A
:1033F000002A40F0CC80B9F1390F00F0E880029B40
:10340000002B01DD05F1310908F1010588F8009074
:103410006BE0129BC3F13603F7E6089B09F1FF3618
:10342000B342B7BF089B9E1BF21A0C9BBFBF089606
:103430009B180C930026B9F1000FB9BFA8EB090542
:10344000002345464B46E2E6089E4546099FE7E6CF
:10345000089A10E71E9B012B18DC029BB3B9039B53
:10346000C3F31303A3B9039B23F000431B0D1B05F8
:103470002BB1079B08F1010801330793012308933F
:103480000C9B002B7FF411AF012016E70023F6E719
:10349000029BF4E73FF423AF079A1C331A44984485
:1034A0001D4413461AE70346F6E700BF0000244018
:1034B000B9F1000F33DC1E9B022B30DDCDF81090EC
:1034C000049B63B931460522204600F043FB0146C8
:1034D0000646504600F0FBFC00283FF75CAD1F9B02
:1034E000069D6FEA030B002307933146204600F048
:1034F0001AFB002F3FF44BAE079B2BB1BB4203D00E
:103500001946204600F00FFB3946204600F00BFB21
:103510003DE600263746E2E7BB4637463BE5099BDA
:10352000CDF81090002B7FF412AF069D3146504627
:10353000FFF754FA069B00F1300905F8019B049A45
:10354000EB1A9A4200F38180069B012AACBF9B18BC
:10355000013398460023079351460122204600F08C
:1035600065FC3146824600F0B2FC002834DC02D112
:1035700019F0010F30D1454615F8013C6A1E302B79
:10358000B3D11546F8E73846FFE6012322E7029A51
:10359000002A04DB28D11E9A32BB089A22BB002BDA
:1035A0007FF732AF51460122204600F03FFC314602
:1035B000824600F08CFC002805DC7FF425AF19F072
:1035C000010F3FF421AFB9F1390F7FF41BAF39235D
:1035D00008F1010808F8013C454615F8013C6A1E4F
:1035E000392B3AD001333FE0002B08F1010505DD0E
:1035F000B9F1390FEBD009F1010907E7069B049AED
:10360000EB1A9342A84605F8019CA5D05146002329
:103610000A22204600F09EFA079B8246BB424FF0EA
:103620000A024FF000030799204604D100F092FAF5
:1036300007900746B1E600F08DFA002307900A22B2
:103640003946204600F086FAF3E7514600230A2265
:10365000204600F07FFA824668E7069B934205D138
:103660003123069A0BF1010B13703EE71546B4E7C0
:10367000094BFFF7A3BA229B002B7FF47DAA074BCF
:10368000FFF79CBA049B002B3FF74FAF1E9B022B0A
:103690007FF74BAF14E700BFB4560800D8560800B8
:1036A0008A892DE9F041054610070C465AD44B682B
:1036B000002B05DC0B6C002B02DC0020BDE8F08148
:1036C000E66A002EF9D0002312F480522F682B6096
:1036D00033D0606DA3895A0705D56368C01A636B40
:1036E0000BB1236CC01A00230246E66A216A284601
:1036F000B047431CA38906D129681D294BD82B4A02
:10370000CA40D60747D5002262602269D9042260E8
:1037100004D5421C01D12B6803B96065616B2F6031
:103720000029CAD004F14403994202D0284600F08F
:10373000A5FC00206063BDE8F081216A01232846D2
:10374000B047411CC6D12B68002BC3D01D2B01D024
:10375000162B01D12F60B0E7A38943F04003A3816A
:10376000BDE8F0810F69002FA7D0930718BF002391
:103770000E6808BF4B69A6EB07080F608B60B8F1B5
:10378000000F9ADD43463A46216A2846A66AB047AA
:10379000002807DCA38943F04003A3814FF0FF30EA
:1037A000BDE8F0810744A8EB0008E8E701004020ED
:1037B00038B50B6905460C46DBB118B183690BB906
:1037C00000F060F80C4B9C4209D16C68B4F90C30E5
:1037D0007BB121462846BDE83840FFF761BF074B63
:1037E0009C4201D1AC68F1E7054B9C4208BFEC68F4
:1037F000ECE7002038BD00BF085708002857080034
:10380000E8560800014900F0A9B800BFB137080028
:10381000002310B5044603604360836081814366E2
:10382000C281036143618361194608225C30FEF75F
:1038300071FA054B24626362044BA362044BE3629A
:10384000044B236310BD00BF6D4408008F44080083
:10385000C7440800EB44080070B568254A1E55436C
:103860000E4605F1740100F055FC044640B10021FC
:1038700080E842000C30A06005F16802FEF74AFAC9
:10388000204670BD836910B5044633BB8364C364AE
:103890000365124B124A1B688262984204BF0123DF
:1038A000836100F01FF86060204600F01BF8A06004
:1038B000204600F017F80022E06004216068FFF75E
:1038C000A7FF01220921A068FFF7A2FF022212210F
:1038D000E068FFF79DFF0123A36110BDA05608001B
:1038E00005380800F8B51C4B07461E68B36913B9C4
:1038F0003046FFF7C7FF4836B4687368013B03D50D
:10390000336833B13668F7E7B4F90C506DB16834F9
:10391000F4E704213846FFF79FFF30600028F1D11B
:103920000C2304463B602046F8BD4FF6FF73E3814D
:1039300001236566A3812560A560656025616561D9
:10394000A5610822294604F15C00FEF7E3F96563EE
:10395000A563A564E564E6E7A05608002DE9F843F1
:1039600080468946002600F1480414B93046BDE877
:10397000F883A5686768013F01D52468F5E7AB893E
:10398000012B07D9B5F90E30013303D02946404643
:10399000C84706436835EEE7044B1B68186A044BBA
:1039A000002808BF1846F030704700BFCC01072040
:1039B0003002072070B50E46B1F90E1090B0002904
:1039C00014461D4607DA00232B60B3891A0610D46B
:1039D0004FF480630EE001AA00F0AEFD0028F2DB98
:1039E000029A02F47042A2F500535A425A412A60E8
:1039F000EEE740230020236010B070BD8B8973B5C3
:103A00009D0706460C4607D504F147032360236152
:103A10000123636102B070BD01AB6A46FFF7CAFFC4
:103A200000990546304600F075FB48B9B4F90C30F2
:103A30009A05EFD423F0030343F00203A381E3E7E5
:103A40000D4BB362A389206043F08003A381009BE8
:103A500020616361019B5BB1B4F90E10304600F048
:103A60007DFD28B1A38923F0030343F00103A38163
:103A7000A3891D43A581CDE705380800024B014607
:103A8000186800F047BB00BFCC01072010B5C9B2D1
:103A900002449042034601D1002010BD1C78013041
:103AA0008C42F6D1184610BD10B5431E0A4491420F
:103AB00000D110BD11F8014B03F8014FF7E770B5C5
:103AC000456A04460E463DB91020FFF7D7FF6062F5
:103AD000456085600560C560656AEB6883B1636AAF
:103AE000DB6853F82600B8B9012101FA06F56A1D12
:103AF0009200204600F0B3FA60B1466085600EE0A7
:103B000021220421204600F0AAFA636AE860DB68FB
:103B1000002BE4D1002070BD026843F8262000236A
:103B20000361C36070BD70B5446A06460D463CB97A
:103B30001020FFF7A3FF7062446084600460C460DB
:103B40003DB1736A6A68DB6853F82210296043F854
:103B5000225070BD2DE9F0411F4606460C46002359
:103B60000D6901F1140EDEF80000013381B202FB91
:103B70000171000C0F0C02FB007089B201EB0041D7
:103B80009D424FEA10474EF8041BECDCD7B1A36806
:103B90009D4212DB616830460131FFF790FF80469D
:103BA000226904F10C01023292000C30FFF77CFF15
:103BB00021463046FFF7B7FF444604EB8503013545
:103BC0005F6125612046BDE8F081020C12040346C6
:103BD000B2B90304102013F07F4F04BF1B0208305A
:103BE00013F0704F04BF1B01043013F0404F04BFAB
:103BF0009B000230002B06DB5B0003D501307047D1
:103C00000020E8E7202070470368014613F0070210
:103C10000BD0DA0723D4980749BF5B089B08012023
:103C20000B605CBF0B600220704798B2A8B91020EF
:103C30001B0C13F0FF0F04BF1B0A08301A0704BF48
:103C40001B0904309A0704BF9B080230DA0702D42C
:103C50005B0806D001300B6070471046E9E7002092
:103C600070472020704710B50C460121FFF727FF51
:103C700001224461026110BD2DE9F74F14460A6923
:103C8000236989469A42BEBF0B46A1461C46D9F815
:103C90001070D4F810A0D9F80830D9F8041007EB48
:103CA0000A069E42C8BF0131FFF709FF00F1140563
:103CB0002B46002205EB8608434516D304F1140277
:103CC00009F1140102EB8A0301EB87070193019CC0
:103CD000134694420CD8002E03DD58F8043D002B07
:103CE00054D0066103B0BDE8F08F43F8042BE3E73E
:103CF000B3F800A00432BAF1000F20D0AE468946D6
:103D00004FF0000C59F8044BBEF800B0A3B20AFB08
:103D100003B34FEA144BDEF8004063444FEA144CFF
:103D20000AFB0BC404EB13449BB243EA04434F4524
:103D30004FEA144C4EF8043BE4D8CEF800C032F8F9
:103D4000029CB9F1000F1FD0AE468C464FF0000A1E
:103D50002B68BCF80040BEF802B09BB209FB04B46B
:103D6000A24443EA0A434EF8043B5CF8043BBEF825
:103D700000401B0C09FB0343674503EB1A434FEA62
:103D8000134AE6D8CEF800300435A0E7013EA2E79A
:103D90002DE9F843154612F0030206460F4607D0F8
:103DA000214C013A002354F82220FFF7D3FE0746A6
:103DB000AD1035D0746A3CB91020FFF75FFE706219
:103DC000446084600460C460D6F82480D8F8084059
:103DD0004CB940F271213046FFF745FF00230446FD
:103DE000C8F8080003604FF00008EB070AD5394611
:103DF00022463046FFF740FF814639463046FFF7FE
:103E000092FE4F466D100BD0206838B922462146ED
:103E10003046FFF731FF2060C0F800800446E4E739
:103E20003846BDE8F88300BF385808002DE9F04750
:103E30000C460746164623694FEA621A0AEB030945
:103E40004968A36809F10105AB4231DB3846FFF749
:103E500036FE00228046114600F1140352452ADB4B
:103E600020692AEAEA7A04F1140116F01F0203EB32
:103E70008A0301EB800E22D00020C2F1200C0E68D4
:103E80009640304343F8040B51F8040B8E4520FA5A
:103E90000CF0F4D8186008B109F10205013D38466C
:103EA000C8F810502146FFF73EFE4046BDE8F087B7
:103EB00001315B00C8E743F822100132CEE7043B32
:103EC00051F8042B8E4543F8042FF9D8E6E703692F
:103ED0000A6930B59B1A0CD1920014301431841841
:103EE000114454F8045D51F8042D954203D005D3D4
:103EF0000123184630BDA042F3D3FAE74FF0FF3359
:103F0000F7E72DE9F0470D460746114628461446C7
:103F1000FFF7DDFF061E08D131463846FFF7CFFD1B
:103F2000012346610361BDE8F087A4BF23462C4608
:103F300038466168A6BF1D4600260126FFF7BFFD73
:103F40004FF0000CC6602B69266904F1140205F1DC
:103F5000140902EB860709EB830800F1140152F8FB
:103F600004AB59F8045B1FFA8AF36344ACB21B1B21
:103F70002C0CC4EB1A4404EB23449BB24FEA244CB0
:103F8000C84543EA0444964641F8044BE7D8BE4589
:103F900005D351F8043D8BB10661BDE8F0875EF8AA
:103FA000044BA2B26244131403EB144392B242EAEC
:103FB00003424FEA234C41F8042BE8E7013EE8E7CF
:103FC0002DE9F3411C4601219046089E099DFFF70B
:103FD00076FDC4F31302C4F30A54074634BB0192BE
:103FE000B8F1000F27D002A840F8088DFFF70CFEAB
:103FF0000099F0B1019AC0F1200302FA03F30B43D8
:10400000C2407B610192019B002B14BF0221012160
:10401000BB613961C4B1A4F2334404443460C0F1DB
:1040200035002860384602B0BDE8F08142F48012C5
:10403000D5E77961E7E701A8FFF7E6FD0121019BDC
:1040400039617B612030E5E7A0F2324007EB810364
:1040500030601869FFF7B9FDC0EB4110E1E738B5F2
:1040600002FB01F4214600F055F8054618B122463E
:104070000021FDF74FFE284638BD000038B5054643
:10408000002943D051F8043C0C1F002BB8BFE418A2
:1040900000F098FA1E4A1368104633B96360146042
:1040A0002846BDE8384000F08EBAA3420BD92168FB
:1040B0006218934201BF1A685B68521822606360FD
:1040C0000460EDE713465A680AB1A242FAD91968AA
:1040D0005818A0420BD12068014458188242196038
:1040E000DED110685268014419605A60D8E702D9DD
:1040F0000C232B60D4E7206821188A4201BF116885
:1041000052680918216062605C60C9E738BD00BF71
:104110002C06072070B5CD1C25F0030508350C2DA5
:1041200038BF0C25002D064601DBA94203D90C231C
:104130003360002070BD00F045FA234A1468214620
:1041400091B9224C23681BB9304600F07FF92060FA
:104150002946304600F07AF9431C26D10C2330461C
:10416000336000F030FAE4E70B685B1B1AD40B2BCA
:104170000FD90B60CC18CD50304600F024FA04F172
:104180000B00231D20F00700C31A1BD05A42E25037
:1041900070BD8C420BBF63684B681360636018BFCF
:1041A0000C46E9E70C464968CAE7C41C24F003043E
:1041B000A04205D0211A304600F048F90130CDD098
:1041C0002560D9E770BD00BF2C0607203006072008
:1041D000936810B4013B002B936008DA9469A34202
:1041E00002DBCBB20A2B02D110BCFEF737BB13683F
:1041F000581C10601970C8B210BC7047F8B506465C
:104200000F461446D518AC4201D1002007E03A46CB
:1042100014F8011B3046FFF7DBFF431CF3D1F8BD58
:104220002DE9F04F9DB00C4617460393064618B192
:1042300083690BB9FFF726FB7C4B9C4257D174680E
:10424000A38918075DD52369002B5AD00023099351
:1042500020238DF8293030234FF0010B8DF82A30C0
:10426000B846454615F8013B002B55D1B8EB070A77
:104270000BD053463A4621463046FFF7BFFF013088
:1042800000F0C480099B5344099398F80030002B38
:1042900000F0BC8000234FF0FF3204930793059297
:1042A00006938DF853301A93052229786048FFF75A
:1042B000EDFB05F10108049B002831D1D90644BF6C
:1042C00020228DF853201A0744BF2B228DF853204B
:1042D0002A782A2A2CD000210A20079AA84698F882
:1042E00000300135303B092B6DD971B326E0514BBD
:1042F0009C4201D1B468A3E74F4B9C4208BFF468CD
:104300009EE721463046FEF7FBFA00289ED04FF08C
:10431000FF301DB0BDE8F08F252BA7D0A846A0E741
:10432000434A4546801A0BFA00F018430490BBE755
:10433000039A111D12680391002A01DB079204E021
:10434000524243F002030792049398F800302E2B58
:1043500010D198F8013008F101012A2B37D1039BC5
:1043600008F102081A1D1B680392002BB8BF4FF01A
:10437000FF330593314D032298F800102846FFF7CC
:1043800085FB40B14023401B03FA00F0049B08F179
:1043900001080343049398F800100622284808F106
:1043A00001078DF82810FFF771FB002834D0254B4A
:1043B00003BB039B073323F0070308330393099BD5
:1043C0004B4409934CE700FB0232012186E70023AE
:1043D0000A2518460593884698F800200131303A9E
:1043E000092A03D9002BC5D00590C3E705FB00209F
:1043F0000123F0E703AB00932246134B04A9304698
:10440000FDF722FDB0F1FF3F8146D8D1A3895B06BD
:104410003FF57DAF09987CE703AB009322460A4B3A
:1044200004A93046FDF7C0FFECE700BF08570800BD
:104430004458080028570800E85608004A58080061
:104440004E580800491E0800FD41080038B50023F9
:10445000054C054608462360FBF7D0FE431C02D1FD
:10446000236803B12B6038BD4806072010B50C4601
:10447000B1F90E1000F0A8F80028ABBF636DA38956
:104480001B1823F48053ACBF6365A38110BD2DE9D5
:10449000F0411F468B890546DB050C46164605D5BF
:1044A00002230022B1F90E1000F068F8A389324609
:1044B00023F48053A381B4F90E103B462846BDE88F
:1044C000F04100F017B810B50C46B1F90E1000F02D
:1044D00055F8431CA38915BF606523F4805343F44A
:1044E0008053A38118BFA38110BDB1F90E1000F055
:1044F00013B8000038B50546084611460022054CA1
:1045000022601A46FCF738FB431C02D1236803B132
:104510002B6038BD4806072038B50023054C0546FA
:1045200008462360FBF786FE431C02D1236803B1D3
:104530002B6038BD4806072038B50023064C0546D9
:10454000084611462360FBF778FE431C02D123681E
:1045500003B12B6038BD00BF4806072038B50023E3
:10456000054C054608462360FBF76CFE431C02D150
:10457000236803B12B6038BD4806072038B50546CF
:10458000084611460022054C22601A46FBF75CFEE5
:10459000431C02D1236803B12B6038BD48060720B5
:1045A00082B001B901A942B14BB113780B60127806
:1045B000101C18BF012002B070471046FBE76FF0D7
:1045C0000100F8E77047704738B5054608461146C0
:1045D0000022054C22601A46FCF7B2FA431C02D1B5
:1045E000236803B12B6038BD4806072049B1FF2A74
:1045F0008BBF8A230A700360012088BF4FF0FF3011
:10460000704708467047000081F0004102E000BF9B
:1046100083F0004330B54FEA41044FEA430594EA82
:10462000050F08BF90EA020F1FBF54EA000C55EABD
:10463000020C7FEA645C7FEA655C00F0E2804FEA8E
:104640005454D4EB5555B8BF6D420CDD2C4480EA70
:10465000020281EA030382EA000083EA010180EAA0
:10466000020281EA0303362D88BF30BD11F0004FEE
:104670004FEA01314FF4801C4CEA113102D0404224
:1046800061EB410113F0004F4FEA03334CEA13335F
:1046900002D0524263EB430394EA050F00F0A78077
:1046A000A4F10104D5F1200E0DDB02FA0EFC22FA72
:1046B00005F2801841F1000103FA0EF2801843FA66
:1046C00005F359410EE0A5F120050EF1200E012A57
:1046D00003FA0EFC28BF4CF0020C43FA05F3C01895
:1046E00051EBE37101F0004507D54FF0000EDCF10E
:1046F000000C7EEB00006EEB0101B1F5801F1BD3B7
:10470000B1F5001F0CD349085FEA30004FEA3C0CBA
:1047100004F101044FEA445212F5800F80F09A80B0
:10472000BCF1004F08BF5FEA500C50F1000041EBB4
:10473000045141EA050130BD5FEA4C0C404141EBB8
:10474000010111F4801FA4F10104E9D191F0000FDF
:1047500004BF01460020B1FA81F308BF2033A3F162
:104760000B03B3F120020CDA0C3208DD02F1140C59
:10477000C2F10C0201FA0CF021FA02F10CE002F194
:104780001402D8BFC2F1200C01FA02F120FA0CFC8D
:10479000DCBF41EA0C019040E41AA2BF01EB0451D6
:1047A000294330BD6FEA04041F3C1CDA0C340EDCD4
:1047B00004F11404C4F1200220FA04F001FA02F317
:1047C00040EA030021FA04F345EA030130BDC4F1D5
:1047D0000C04C4F1200220FA02F001FA04F340EACA
:1047E0000300294630BD21FA04F0294630BD94F07B
:1047F000000F83F4801306BF81F480110134013D62
:104800004EE77FEA645C18BF7FEA655C29D094EAD2
:10481000050F08BF90EA020F05D054EA000C04BF50
:104820001946104630BD91EA030F1EBF002100203B
:1048300030BD5FEA545C05D14000494128BF41F0DA
:10484000004130BD14F580043CBF01F5801130BD3E
:1048500001F0004545F0FE4141F470014FF00000C9
:1048600030BD7FEA645C1ABF194610467FEA655C7A
:104870001CBF0B46024650EA013406BF52EA03351C
:1048800091EA030F41F4002130BD00BF90F0000F0A
:1048900004BF0021704730B54FF4806404F1320446
:1048A0004FF000054FF0000150E700BF90F0000FFF
:1048B00004BF0021704730B54FF4806404F1320426
:1048C00010F0004548BF40424FF000013EE700BFF6
:1048D00042004FEAE2014FEA31014FEA02701FBF86
:1048E00012F07F4393F07F4F81F06051704792F058
:1048F000000F14BF93F07F4F704730B54FF46074D2
:1049000001F0004521F0004120E700BF50EA01021C
:1049100008BF704730B54FF000050AE050EA0102C9
:1049200008BF704730B511F0004502D5404261EB39
:1049300041014FF4806404F132045FEA915C3FF47A
:10494000DCAE4FF003025FEADC0C18BF03325FEA13
:10495000DC0C18BF033202EBDC02C2F1200300FAC8
:1049600003FC20FA02F001FA03FE40EA0E0021FAED
:1049700002F11444C1E600BF70B54FF0FF0C4CF4D7
:10498000E06C1CEA11541DBF1CEA135594EA0C0F8D
:1049900095EA0C0F00F0DEF82C4481EA030621EAC8
:1049A0004C5123EA4C5350EA013518BF52EA033503
:1049B00041F4801143F4801338D0A0FB02CE4FF0B5
:1049C0000005E1FB02E506F00042E0FB03E54FF0E5
:1049D0000006E1FB03569CF0000F18BF4EF0010EDD
:1049E000A4F1FF04B6F5007F64F5407404D25FEAD9
:1049F0004E0E6D4146EB060642EAC62141EA55518C
:104A00004FEAC52040EA5E504FEACE2EB4F1FD0CCD
:104A100088BFBCF5E06F1ED8BEF1004F08BF5FEA4B
:104A2000500E50F1000041EB045170BD06F00046FD
:104A300046EA010140EA020081EA0301B4EB5C04AA
:104A4000C2BFD4EB0C0541EA045170BD41F48011A2
:104A50004FF0000E013C00F3AB8014F1360FDEBFC7
:104A6000002001F0004170BDC4F10004203C35DAA3
:104A70000C341BDC04F11404C4F1200500FA05F326
:104A800020FA04F001FA05F240EA020001F00042C7
:104A900021F0004110EBD37021FA04F642EB06013D
:104AA0005EEA430E08BF20EAD37070BDC4F10C0467
:104AB000C4F1200500FA04F320FA05F001FA04F22B
:104AC00040EA020001F0004110EBD37041F1000117
:104AD0005EEA430E08BF20EAD37070BDC4F1200522
:104AE00000FA05F24EEA020E20FA04F301FA05F28A
:104AF00043EA020321FA04F001F0004121FA04F232
:104B000020EA020000EBD3705EEA430E08BF20EA01
:104B1000D37070BD94F0000F0FD101F0004640003B
:104B200041EB010111F4801F08BF013CF7D041EABD
:104B3000060195F0000F18BF704703F000465200C1
:104B400043EB030313F4801F08BF013DF7D043EA92
:104B50000603704794EA0C0F0CEA135518BF95EA48
:104B60000C0F0CD050EA410618BF52EA4306D1D1CF
:104B700081EA030101F000414FF0000070BD50EAEE
:104B8000410606BF1046194652EA430619D094EA78
:104B90000C0F02D150EA013613D195EA0C0F05D162
:104BA00052EA03361CBF104619460AD181EA0301B6
:104BB00001F0004141F0FE4141F470014FF000006E
:104BC00070BD41F0FE4141F4780170BD70B54FF009
:104BD000FF0C4CF4E06C1CEA11541DBF1CEA135589
:104BE00094EA0C0F95EA0C0F00F0A7F8A4EB05046B
:104BF00081EA030E52EA03354FEA013100F0888062
:104C00004FEA03334FF0805545EA131343EA12632A
:104C10004FEA022245EA111545EA10654FEA0026DF
:104C20000EF000419D4208BF964244F1FD0404F598
:104C3000407402D25B084FEA3202B61A65EB0305F4
:104C40005B084FEA32024FF480104FF4002CB6EBB1
:104C5000020E75EB030E22BFB61A754640EA0C0031
:104C60005B084FEA3202B6EB020E75EB030E22BF71
:104C7000B61A754640EA5C005B084FEA3202B6EBB2
:104C8000020E75EB030E22BFB61A754640EA9C0071
:104C90005B084FEA3202B6EB020E75EB030E22BF41
:104CA000B61A754640EADC0055EA060E18D04FEAFF
:104CB000051545EA16754FEA06164FEAC30343EA9F
:104CC00052734FEAC2025FEA1C1CC0D111F4801F6C
:104CD0000BD141EA00014FF000004FF0004CB6E765
:104CE00011F4801F04BF01430020B4F1FD0C88BF04
:104CF000BCF5E06F3FF6AFAEB5EB030C04BFB6EB0F
:104D0000020C5FEA500C50F1000041EB045170BD01
:104D10000EF0004E4EEA113114EB5C04C2BFD4EB2E
:104D20000C0541EA045170BD41F480114FF0000EB2
:104D3000013C90E645EA060E8DE60CEA135594EA2E
:104D40000C0F08BF95EA0C0F3FF43BAF94EA0C0F31
:104D50000AD150EA01347FF434AF95EA0C0F7FF4A6
:104D600025AF104619462CE795EA0C0F06D152EAFA
:104D700003353FF4FDAE1046194622E750EA4106DE
:104D800018BF52EA43067FF4C5AE50EA41047FF4EF
:104D90000DAF52EA43057FF4EBAE12E74FF0FF3C54
:104DA00006E000BF4FF0010C02E000BF4FF0010C25
:104DB0004DF804CD4FEA410C7FEA6C5C4FEA430C9E
:104DC00018BF7FEA6C5C1BD001B050EA410C0CBFED
:104DD00052EA430C91EA030F02BF90EA020F00204F
:104DE000704710F1000F91EA030F58BF994208BFB6
:104DF00090422CBFD8176FEAE37040F00100704773
:104E00004FEA410C7FEA6C5C02D150EA013C07D1C9
:104E10004FEA430C7FEA6C5CD6D152EA033CD3D014
:104E20005DF8040B704700BF8446104662468C460E
:104E30001946634600E000BF01B5FFF7B7FF002841
:104E400048BF10F1000F01BD4DF808EDFFF7F4FF6A
:104E50000CBF012000205DF808FB00BF4DF808EDF5
:104E6000FFF7EAFF34BF012000205DF808FB00BF18
:104E70004DF808EDFFF7E0FF94BF012000205DF83A
:104E800008FB00BF4DF808EDFFF7CEFF94BF0120EF
:104E900000205DF808FB00BF4DF808EDFFF7C4FFE8
:104EA00034BF012000205DF808FB00BF4FEA410C31
:104EB0007FEA6C5C02D150EA013C0AD14FEA430C14
:104EC0007FEA6C5C02D152EA033C02D14FF0000051
:104ED00070474FF0010070474FEA410212F500128F
:104EE00015D211D56FF47873B3EB625212D94FEA31
:104EF000C12343F0004343EA505311F0004F23FA1B
:104F000002F018BF404270474FF00000704750EA6F
:104F1000013005D111F0004008BF6FF0004070472C
:104F20004FF00000704700BF80F0004002E000BF7B
:104F300081F0004142001FBF5FEA410392EA030F84
:104F40007FEA226C7FEA236C6AD04FEA1262D2EBCE
:104F50001363C1BFD218414048404140B8BF5B42D3
:104F6000192B88BF704710F0004F40F4000020F06C
:104F70007F4018BF404211F0004F41F4000121F082
:104F80007F4118BF494292EA030F3FD0A2F10102CC
:104F900041FA03FC10EB0C00C3F1200301FA03F10A
:104FA00000F0004302D5494260EB4000B0F5000F2D
:104FB00013D3B0F1807F06D340084FEA310102F1EC
:104FC0000102FE2A51D2B1F1004F40EBC25008BF9E
:104FD00020F0010040EA03007047490040EB000068
:104FE00010F4000FA2F10102EDD1B0FA80FCACF197
:104FF000080CB2EB0C0200FA0CF0AABF00EBC25096
:1050000052421843BCBFD0401843704792F0000F83
:1050100081F4000106BF80F400000132013BB5E7D6
:105020004FEA41037FEA226C18BF7FEA236C21D04C
:1050300092EA030F04D092F0000F08BF08467047B1
:1050400090EA010F1CBF0020704712F07F4F04D17F
:10505000400028BF40F00040704712F100723CBF92
:1050600000F50000704700F0004343F0FE4040F4BC
:10507000000070477FEA226216BF08467FEA23637A
:105080000146420206BF5FEA412390EA010F40F465
:10509000800070474FF0000304E000BF10F00043B1
:1050A00048BF40425FEA000C08BF704743F0964398
:1050B00001464FF000001CE050EA010208BF7047B3
:1050C0004FF000030AE000BF50EA010208BF70473A
:1050D00011F0004302D5404261EB41015FEA010C4F
:1050E00002BF84460146002043F0B64308BFA3F147
:1050F0008053A3F50003BCFA8CF2083AA3EBC25329
:1051000010DB01FA02FC634400FA02FCC2F1200247
:10511000BCF1004F20FA02F243EB020008BF20F07E
:105120000100704702F1200201FA02FCC2F12002E4
:1051300050EA4C0021FA02F243EB020008BF20EAD9
:10514000DC7070474FF0FF0C1CEAD0521EBF1CEA07
:10515000D15392EA0C0F93EA0C0F6FD01A4480EAF5
:10516000010C400218BF5FEA41211ED04FF00063DE
:1051700043EA501043EA5111A0FB01310CF000400A
:10518000B1F5000F3EBF490041EAD3715B0040EA30
:10519000010062F17F02FD2A1DD8B3F1004F40EB00
:1051A000C25008BF20F00100704790F0000F0CF0D3
:1051B000004C08BF49024CEA502040EA51207F3A97
:1051C000C2BFD2F1FF0340EAC250704740F4000072
:1051D0004FF00003013A5DDC12F1190FDCBF00F063
:1051E00000407047C2F10002410021FA02F1C2F111
:1051F000200200FA02FC5FEA310040F1000053EAAD
:105200004C0308BF20EADC70704792F0000F00F0FA
:10521000004C02BF400010F4000F013AF9D040EA00
:105220000C0093F0000F01F0004C02BF490011F494
:10523000000F013BF9D041EA0C018FE70CEAD15392
:1052400092EA0C0F18BF93EA0C0F0AD030F0004C12
:1052500018BF31F0004CD8D180EA010000F00040C6
:10526000704790F0000F17BF90F0004F084691F084
:10527000000F91F0004F14D092EA0C0F01D14202BE
:105280000FD193EA0C0F03D14B0218BF084608D187
:1052900080EA010000F0004040F0FE4040F40000D1
:1052A000704740F0FE4040F4400070474FF0FF0C64
:1052B0001CEAD0521EBF1CEAD15392EA0C0F93EAAB
:1052C0000C0F69D0A2EB030280EA010C49024FEAFD
:1052D000402037D04FF0805343EA111143EA1013B6
:1052E0000CF000408B4238BF5B0042F17D024FF46E
:1052F000000C8B4224BF5B1A40EA0C00B3EB510F49
:1053000024BFA3EB510340EA5C00B3EB910F24BF31
:10531000A3EB910340EA9C00B3EBD10F24BFA3EBB6
:10532000D10340EADC001B0118BF5FEA1C1CE0D17E
:10533000FD2A3FF650AF8B4240EBC25008BF20F031
:10534000010070470CF0004C4CEA50207F32C2BF85
:10535000D2F1FF0340EAC250704740F400004FF022
:105360000003013A37E792F0000F00F0004C02BF53
:10537000400010F4000F013AF9D040EA0C0093F01D
:10538000000F01F0004C02BF490011F4000F013B77
:10539000F9D041EA0C0195E70CEAD15392EA0C0FDF
:1053A00008D142027FF47DAF93EA0C0F7FF470AF17
:1053B000084676E793EA0C0F04D14B023FF44CAF5A
:1053C00008466EE730F0004C18BF31F0004CCAD1EF
:1053D00030F000427FF45CAF31F000437FF43CAF2B
:1053E0005FE700BF4FF0FF3C06E000BF4FF0010C4D
:1053F00002E000BF4FF0010C4DF804CD4FEA40022F
:105400004FEA41037FEA226C18BF7FEA236C11D078
:1054100001B052EA530C18BF90EA010F58BFB2EB2B
:10542000030088BFC81738BF6FEAE17018BF40F0AB
:10543000010070477FEA226C02D15FEA402C05D15F
:105440007FEA236CE4D15FEA412CE1D05DF8040BE4
:10545000704700BF844608466146FFE70FB5FFF777
:10546000C9FF002848BF10F1000F0FBD4DF808ED2F
:10547000FFF7F4FF0CBF012000205DF808FB00BF20
:105480004DF808EDFFF7EAFF34BF012000205DF87A
:1054900008FB00BF4DF808EDFFF7E0FF94BF0120C7
:1054A00000205DF808FB00BF4DF808EDFFF7D2FFC4
:1054B00094BF012000205DF808FB00BF4DF808ED07
:1054C000FFF7C8FF34BF012000205DF808FB00BFD4
:1054D00042000ED2B2F1FE4F0BD34FF09E03B3EB5E
:1054E000126209D44FEA002343F0004323FA02F08A
:1054F00070474FF00000704712F1610F01D1420276
:1055000002D14FF0FF3070474FF00000704700BFEE
:105510004475726565206465207072657373696F88
:105520006E202564200A00004D6F7576656D656EEE
:1055300074206D6F74657572200A00004D6F75766A
:10554000656D656E74207A65726F200A0000000038
:105550004C27616C696D656E746174696F6E20644F
:1055600065206C61206361727465206E27657374B9
:1055700020706173206272616E6368E965000000EB
:10558000010000000200000004000000080000000C
:10559000100000002000000040000000800000001B
:1055A00000010000000200000004000000BD010531
:1055B00000C20100000800000B0000000C00000009
:1055C0000D0000000E0000001B0000001C00000089
:1055D0001D0000001E0000001F0000002000000051
:1055E0002100000022000000230000002500000030
:1055F0002600000024000000240000002400000019
:10560000240000002400000024000000240000000A
:1056100024000000000E0E4000100E4000120E404C
:1056200000140E4000000000010000000200000015
:105630000300000004000000050000000600000058
:10564000070000001D0000001F0000001E000000F9
:105650000A0000000B0C0D0E1B1C1D1E1F2021221A
:105660002325262424242424242424000000084064
:10567000000008400000084000400840004008408A
:10568000004008400080084000800840008008403A
:10569000000102030405060708090A0B0C0D0E0F92
:1056A000D0010720494E4600696E66004E414E000B
:1056B0006E616E0030003031323334353637383970
:1056C0004142434445460030313233343536373871
:1056D0003961626364656600496E66696E697479F2
:1056E000004E614E000000000000000000000000BD
:1056F00000000000000000000000000000000000AA
:105700000000000000000000000000000000000099
:105710000000000000000000000000000000000089
:105720000000000000000000000000000000000079
:105730000000000000000000000000000000000069
:1057400000000000000000000080E03779C3414302
:10575000176E05B5B5B89346F5F93FE9034F384DD7
:10576000321D30F94877825A3CBF737FDD4F157583
:10577000000000000000F03F000000000000244096
:1057800000000000000059400000000000408F4071
:10579000000000000088C34000000000006AF840DC
:1057A0000000000080842E4100000000D012634100
:1057B0000000000084D797410000000065CDCD4176
:1057C000000000205FA00242000000E87648374257
:1057D000000000A2941A6D42000040E59C30A242F5
:1057E0000000901EC4BCD64200003426F56B0C436A
:1057F0000080E03779C3414300A0D8855734764311
:1058000000C84E676DC1AB43003D9160E458E14371
:10581000408CB5781DAF154450EFE2D6E41A4B44E6
:1058200092D54D06CFF08044F64AE1C7022DB5442B
:10583000B49DD9794378EA440500000019000000BE
:105840007D000000232D302B2000686C4C00656625
:1058500067454647004300504F534958002E00000B
:105860002020202020202020202828282828202010
:105870002020202020202020202020202020202028
:1058800088101010101010101010101010101010A0
:105890000404040404040404040410101010101080
:1058A0001041414141414101010101010101010159
:1058B000010101010101010101010110101010108D
:1058C000104242424242420202020202020202022A
:1058D0000202020202020202020202101010102052
:1058E00000000000000000000000000000000000B8
:1058F00000000000000000000000000000000000A8
:105900000000000000000000000000000000000097
:105910000000000000000000000000000000000087
:105920000000000000000000000000000000000077
:105930000000000000000000000000000000000067
:105940000000000000000000000000000000000057
:105950000000000000000000000000000000000047
:10596000F8B500BFF8BC08BC9E4670471901080096
:10597000F8B500BFF8BC08BC9E467047F5000800AB
:105980004FF48063204A136002F5007213601F4BCE
:105990001B6A13F0807F07D11D4A1C4B1A621A46FE
:1059A000936E13F0010FFBD01A4A184B1A621A4675
:1059B000936E13F4803FFBD0144A136B23F0030360
:1059C00043F001031363936E13F0080FFBD0124AE8
:1059D0000E4B9A621A46936E13F0020FFBD01122FF
:1059E0000A4B1A631A46936E13F0080FFBD012226B
:1059F000064B1A631A46936E13F0080FFBD0074A42
:105A0000074B1A60704700BF000A0E4000060E40A8
:105A10000908370009083701013F0D2000BD0105C5
:105A2000300107201B4B984215D91B4B984219D9BE
:105A30001A4B98421ED91A4B984223D9194B9842B7
:105A400094BF4FF480634FF4A063174A136002F5CC
:105A50000072136070470023134A136002F500724E
:105A6000136070474FF480730F4A136002F50072A1
:105A7000136070474FF400730B4A136002F5007215
:105A8000136070474FF44073074A136002F50072C9
:105A900013607047BFEA21017FF0FA02FF8FD00345
:105AA000FFB3C4047F4A5D05000A0E4001000000F8
:105AB00000093D00000000001E0000000000000082
:105AC000E2FFFFFF020000000200000002000000F1
:105AD00002000000020000000500000007000000B6
